{
  "contractName": "SmartContract",
  "abi": [
    {
      "inputs": [],
      "stateMutability": "nonpayable",
      "type": "constructor"
    },
    {
      "inputs": [
        {
          "internalType": "address",
          "name": "",
          "type": "address"
        },
        {
          "internalType": "uint256",
          "name": "",
          "type": "uint256"
        }
      ],
      "name": "orders",
      "outputs": [
        {
          "internalType": "address",
          "name": "clientAddress",
          "type": "address"
        },
        {
          "components": [
            {
              "internalType": "uint256",
              "name": "id",
              "type": "uint256"
            },
            {
              "internalType": "string",
              "name": "name",
              "type": "string"
            },
            {
              "internalType": "uint256",
              "name": "price",
              "type": "uint256"
            },
            {
              "internalType": "uint256",
              "name": "quantity",
              "type": "uint256"
            },
            {
              "internalType": "string",
              "name": "description",
              "type": "string"
            },
            {
              "internalType": "bool",
              "name": "visible",
              "type": "bool"
            },
            {
              "internalType": "string",
              "name": "image",
              "type": "string"
            }
          ],
          "internalType": "struct SmartContract.Product",
          "name": "product",
          "type": "tuple"
        },
        {
          "internalType": "uint256",
          "name": "bqte",
          "type": "uint256"
        },
        {
          "internalType": "uint256",
          "name": "time",
          "type": "uint256"
        }
      ],
      "stateMutability": "view",
      "type": "function",
      "constant": true
    },
    {
      "inputs": [
        {
          "internalType": "address",
          "name": "",
          "type": "address"
        }
      ],
      "name": "ordersNumber",
      "outputs": [
        {
          "internalType": "uint256",
          "name": "",
          "type": "uint256"
        }
      ],
      "stateMutability": "view",
      "type": "function",
      "constant": true
    },
    {
      "inputs": [],
      "name": "owner",
      "outputs": [
        {
          "internalType": "address",
          "name": "",
          "type": "address"
        }
      ],
      "stateMutability": "view",
      "type": "function",
      "constant": true
    },
    {
      "inputs": [
        {
          "internalType": "uint256",
          "name": "",
          "type": "uint256"
        }
      ],
      "name": "productsList",
      "outputs": [
        {
          "internalType": "uint256",
          "name": "id",
          "type": "uint256"
        },
        {
          "internalType": "string",
          "name": "name",
          "type": "string"
        },
        {
          "internalType": "uint256",
          "name": "price",
          "type": "uint256"
        },
        {
          "internalType": "uint256",
          "name": "quantity",
          "type": "uint256"
        },
        {
          "internalType": "string",
          "name": "description",
          "type": "string"
        },
        {
          "internalType": "bool",
          "name": "visible",
          "type": "bool"
        },
        {
          "internalType": "string",
          "name": "image",
          "type": "string"
        }
      ],
      "stateMutability": "view",
      "type": "function",
      "constant": true
    },
    {
      "inputs": [],
      "name": "getProductsNumber",
      "outputs": [
        {
          "internalType": "uint256",
          "name": "",
          "type": "uint256"
        }
      ],
      "stateMutability": "view",
      "type": "function",
      "constant": true
    },
    {
      "inputs": [
        {
          "internalType": "string",
          "name": "name",
          "type": "string"
        },
        {
          "internalType": "uint256",
          "name": "price",
          "type": "uint256"
        },
        {
          "internalType": "uint256",
          "name": "quantity",
          "type": "uint256"
        },
        {
          "internalType": "string",
          "name": "description",
          "type": "string"
        },
        {
          "internalType": "bool",
          "name": "visible",
          "type": "bool"
        },
        {
          "internalType": "string",
          "name": "image",
          "type": "string"
        }
      ],
      "name": "addProduct",
      "outputs": [],
      "stateMutability": "nonpayable",
      "type": "function"
    },
    {
      "inputs": [
        {
          "internalType": "uint256",
          "name": "productId",
          "type": "uint256"
        }
      ],
      "name": "deleteProduct",
      "outputs": [],
      "stateMutability": "nonpayable",
      "type": "function"
    },
    {
      "inputs": [
        {
          "internalType": "uint256",
          "name": "productId",
          "type": "uint256"
        },
        {
          "internalType": "string",
          "name": "name",
          "type": "string"
        },
        {
          "internalType": "uint256",
          "name": "price",
          "type": "uint256"
        },
        {
          "internalType": "uint256",
          "name": "quantity",
          "type": "uint256"
        },
        {
          "internalType": "string",
          "name": "description",
          "type": "string"
        },
        {
          "internalType": "bool",
          "name": "visible",
          "type": "bool"
        },
        {
          "internalType": "string",
          "name": "image",
          "type": "string"
        }
      ],
      "name": "updateProduct",
      "outputs": [],
      "stateMutability": "payable",
      "type": "function",
      "payable": true
    },
    {
      "inputs": [
        {
          "internalType": "uint256",
          "name": "productId",
          "type": "uint256"
        }
      ],
      "name": "getProductById",
      "outputs": [
        {
          "components": [
            {
              "internalType": "uint256",
              "name": "id",
              "type": "uint256"
            },
            {
              "internalType": "string",
              "name": "name",
              "type": "string"
            },
            {
              "internalType": "uint256",
              "name": "price",
              "type": "uint256"
            },
            {
              "internalType": "uint256",
              "name": "quantity",
              "type": "uint256"
            },
            {
              "internalType": "string",
              "name": "description",
              "type": "string"
            },
            {
              "internalType": "bool",
              "name": "visible",
              "type": "bool"
            },
            {
              "internalType": "string",
              "name": "image",
              "type": "string"
            }
          ],
          "internalType": "struct SmartContract.Product",
          "name": "",
          "type": "tuple"
        }
      ],
      "stateMutability": "view",
      "type": "function",
      "constant": true
    },
    {
      "inputs": [
        {
          "internalType": "uint256",
          "name": "productId",
          "type": "uint256"
        },
        {
          "internalType": "uint256",
          "name": "bqte",
          "type": "uint256"
        }
      ],
      "name": "buyProduct",
      "outputs": [
        {
          "internalType": "string",
          "name": "",
          "type": "string"
        }
      ],
      "stateMutability": "payable",
      "type": "function",
      "payable": true
    },
    {
      "inputs": [],
      "name": "getOrdersByClientAddress",
      "outputs": [
        {
          "components": [
            {
              "internalType": "address",
              "name": "clientAddress",
              "type": "address"
            },
            {
              "components": [
                {
                  "internalType": "uint256",
                  "name": "id",
                  "type": "uint256"
                },
                {
                  "internalType": "string",
                  "name": "name",
                  "type": "string"
                },
                {
                  "internalType": "uint256",
                  "name": "price",
                  "type": "uint256"
                },
                {
                  "internalType": "uint256",
                  "name": "quantity",
                  "type": "uint256"
                },
                {
                  "internalType": "string",
                  "name": "description",
                  "type": "string"
                },
                {
                  "internalType": "bool",
                  "name": "visible",
                  "type": "bool"
                },
                {
                  "internalType": "string",
                  "name": "image",
                  "type": "string"
                }
              ],
              "internalType": "struct SmartContract.Product",
              "name": "product",
              "type": "tuple"
            },
            {
              "internalType": "uint256",
              "name": "bqte",
              "type": "uint256"
            },
            {
              "internalType": "uint256",
              "name": "time",
              "type": "uint256"
            }
          ],
          "internalType": "struct SmartContract.Order[]",
          "name": "",
          "type": "tuple[]"
        }
      ],
      "stateMutability": "view",
      "type": "function",
      "constant": true
    },
    {
      "inputs": [],
      "name": "getContractBalance",
      "outputs": [
        {
          "internalType": "uint256",
          "name": "",
          "type": "uint256"
        }
      ],
      "stateMutability": "view",
      "type": "function",
      "constant": true
    },
    {
      "inputs": [],
      "name": "sendContractBalanceToOwner",
      "outputs": [],
      "stateMutability": "nonpayable",
      "type": "function"
    }
  ],
  "bytecode": "0x608060405234801561001057600080fd5b50336000806101000a81548173ffffffffffffffffffffffffffffffffffffffff021916908373ffffffffffffffffffffffffffffffffffffffff160217905550612589806100606000396000f3fe6080604052600436106100c25760003560e01c806389c0f05b1161007f578063c49e23ae11610059578063c49e23ae1461028c578063ddea0678146102b5578063ed90c7b7146102d1578063f0d39256146102fa576100c2565b806389c0f05b1461021f5780638da5cb5b1461024a578063b137d62914610275576100c2565b80632017e5d8146100c75780633f70c2b41461010457806353b628661461014157806367318b6c146101715780636f9fb98a146101b4578063793b8c6d146101df575b600080fd5b3480156100d357600080fd5b506100ee60048036038101906100e991906119b0565b610325565b6040516100fb91906119f6565b60405180910390f35b34801561011057600080fd5b5061012b60048036038101906101269190611a3d565b61033d565b6040516101389190611bd7565b60405180910390f35b61015b60048036038101906101569190611bf9565b610628565b6040516101689190611c83565b60405180910390f35b34801561017d57600080fd5b5061019860048036038101906101939190611a3d565b610b5e565b6040516101ab9796959493929190611cb4565b60405180910390f35b3480156101c057600080fd5b506101c9610d55565b6040516101d691906119f6565b60405180910390f35b3480156101eb57600080fd5b5061020660048036038101906102019190611d38565b610d5d565b6040516102169493929190611d87565b60405180910390f35b34801561022b57600080fd5b50610234610fc3565b60405161024191906119f6565b60405180910390f35b34801561025657600080fd5b5061025f610fd0565b60405161026c9190611dd3565b60405180910390f35b34801561028157600080fd5b5061028a610ff4565b005b34801561029857600080fd5b506102b360048036038101906102ae9190611f4f565b61105d565b005b6102cf60048036038101906102ca9190612030565b61116c565b005b3480156102dd57600080fd5b506102f860048036038101906102f39190611a3d565b61126f565b005b34801561030657600080fd5b5061030f611486565b60405161031c9190612304565b60405180910390f35b60036020528060005260406000206000915090505481565b61034561178f565b60005b6001805490508110156105b957826001828154811061036a57610369612326565b5b90600052602060002090600702016000015414156105a6576001818154811061039657610395612326565b5b90600052602060002090600702016040518060e0016040529081600082015481526020016001820180546103c990612384565b80601f01602080910402602001604051908101604052809291908181526020018280546103f590612384565b80156104425780601f1061041757610100808354040283529160200191610442565b820191906000526020600020905b81548152906001019060200180831161042557829003601f168201915b50505050508152602001600282015481526020016003820154815260200160048201805461046f90612384565b80601f016020809104026020016040519081016040528092919081815260200182805461049b90612384565b80156104e85780601f106104bd576101008083540402835291602001916104e8565b820191906000526020600020905b8154815290600101906020018083116104cb57829003601f168201915b505050505081526020016005820160009054906101000a900460ff1615151515815260200160068201805461051c90612384565b80601f016020809104026020016040519081016040528092919081815260200182805461054890612384565b80156105955780601f1061056a57610100808354040283529160200191610595565b820191906000526020600020905b81548152906001019060200180831161057857829003601f168201915b505050505081525050915050610623565b80806105b1906123e5565b915050610348565b506040518060e001604052806000815260200160405180602001604052806000815250815260200160008152602001600081526020016040518060200160405280600081525081526020016000151581526020016040518060200160405280600081525081525090505b919050565b606060005b600180549050811015610b1e57836001828154811061064f5761064e612326565b5b9060005260206000209060070201600001541415610b0b57826001828154811061067c5761067b612326565b5b906000526020600020906007020160030154610698919061242e565b600182815481106106ac576106ab612326565b5b906000526020600020906007020160030181905550600260003373ffffffffffffffffffffffffffffffffffffffff1673ffffffffffffffffffffffffffffffffffffffff16815260200190815260200160002060405180608001604052803373ffffffffffffffffffffffffffffffffffffffff1681526020016001848154811061073b5761073a612326565b5b90600052602060002090600702016040518060e00160405290816000820154815260200160018201805461076e90612384565b80601f016020809104026020016040519081016040528092919081815260200182805461079a90612384565b80156107e75780601f106107bc576101008083540402835291602001916107e7565b820191906000526020600020905b8154815290600101906020018083116107ca57829003601f168201915b50505050508152602001600282015481526020016003820154815260200160048201805461081490612384565b80601f016020809104026020016040519081016040528092919081815260200182805461084090612384565b801561088d5780601f106108625761010080835404028352916020019161088d565b820191906000526020600020905b81548152906001019060200180831161087057829003601f168201915b505050505081526020016005820160009054906101000a900460ff161515151581526020016006820180546108c190612384565b80601f01602080910402602001604051908101604052809291908181526020018280546108ed90612384565b801561093a5780601f1061090f5761010080835404028352916020019161093a565b820191906000526020600020905b81548152906001019060200180831161091d57829003601f168201915b50505050508152505081526020018581526020014281525090806001815401808255809150506001900390600052602060002090600a020160009091909190915060008201518160000160006101000a81548173ffffffffffffffffffffffffffffffffffffffff021916908373ffffffffffffffffffffffffffffffffffffffff1602179055506020820151816001016000820151816000015560208201518160010190805190602001906109f19291906117ce565b5060408201518160020155606082015181600301556080820151816004019080519060200190610a229291906117ce565b5060a08201518160050160006101000a81548160ff02191690831515021790555060c0820151816006019080519060200190610a5f9291906117ce565b50505060408201518160080155606082015181600901555050600360003373ffffffffffffffffffffffffffffffffffffffff1673ffffffffffffffffffffffffffffffffffffffff1681526020019081526020016000206000815480929190610ac8906123e5565b91905055506040518060400160405280600481526020017f646f6e6500000000000000000000000000000000000000000000000000000000815250915050610b58565b8080610b16906123e5565b91505061062d565b506040518060400160405280600981526020017f4e6f7420666f756e64000000000000000000000000000000000000000000000081525090505b92915050565b60018181548110610b6e57600080fd5b9060005260206000209060070201600091509050806000015490806001018054610b9790612384565b80601f0160208091040260200160405190810160405280929190818152602001828054610bc390612384565b8015610c105780601f10610be557610100808354040283529160200191610c10565b820191906000526020600020905b815481529060010190602001808311610bf357829003601f168201915b505050505090806002015490806003015490806004018054610c3190612384565b80601f0160208091040260200160405190810160405280929190818152602001828054610c5d90612384565b8015610caa5780601f10610c7f57610100808354040283529160200191610caa565b820191906000526020600020905b815481529060010190602001808311610c8d57829003601f168201915b5050505050908060050160009054906101000a900460ff1690806006018054610cd290612384565b80601f0160208091040260200160405190810160405280929190818152602001828054610cfe90612384565b8015610d4b5780601f10610d2057610100808354040283529160200191610d4b565b820191906000526020600020905b815481529060010190602001808311610d2e57829003601f168201915b5050505050905087565b600047905090565b60026020528160005260406000208181548110610d7957600080fd5b90600052602060002090600a0201600091509150508060000160009054906101000a900473ffffffffffffffffffffffffffffffffffffffff1690806001016040518060e001604052908160008201548152602001600182018054610ddd90612384565b80601f0160208091040260200160405190810160405280929190818152602001828054610e0990612384565b8015610e565780601f10610e2b57610100808354040283529160200191610e56565b820191906000526020600020905b815481529060010190602001808311610e3957829003601f168201915b505050505081526020016002820154815260200160038201548152602001600482018054610e8390612384565b80601f0160208091040260200160405190810160405280929190818152602001828054610eaf90612384565b8015610efc5780601f10610ed157610100808354040283529160200191610efc565b820191906000526020600020905b815481529060010190602001808311610edf57829003601f168201915b505050505081526020016005820160009054906101000a900460ff16151515158152602001600682018054610f3090612384565b80601f0160208091040260200160405190810160405280929190818152602001828054610f5c90612384565b8015610fa95780601f10610f7e57610100808354040283529160200191610fa9565b820191906000526020600020905b815481529060010190602001808311610f8c57829003601f168201915b505050505081525050908060080154908060090154905084565b6000600180549050905090565b60008054906101000a900473ffffffffffffffffffffffffffffffffffffffff1681565b60008054906101000a900473ffffffffffffffffffffffffffffffffffffffff1673ffffffffffffffffffffffffffffffffffffffff166108fc479081150290604051600060405180830381858888f1935050505015801561105a573d6000803e3d6000fd5b50565b60016040518060e001604052806001808054905061107b9190612462565b815260200188815260200187815260200186815260200185815260200184151581526020018381525090806001815401808255809150506001900390600052602060002090600702016000909190919091506000820151816000015560208201518160010190805190602001906110f39291906117ce565b50604082015181600201556060820151816003015560808201518160040190805190602001906111249291906117ce565b5060a08201518160050160006101000a81548160ff02191690831515021790555060c08201518160060190805190602001906111619291906117ce565b505050505050505050565b6040518060e00160405280888152602001878152602001868152602001858152602001848152602001831515815260200182815250600180896111af919061242e565b815481106111c0576111bf612326565b5b90600052602060002090600702016000820151816000015560208201518160010190805190602001906111f49291906117ce565b50604082015181600201556060820151816003015560808201518160040190805190602001906112259291906117ce565b5060a08201518160050160006101000a81548160ff02191690831515021790555060c08201518160060190805190602001906112629291906117ce565b5090505050505050505050565b600180805490506112809190612462565b81106112c1576040517f08c379a00000000000000000000000000000000000000000000000000000000081526004016112b890612504565b60405180910390fd5b60006001826112d0919061242e565b90505b600180805490506112e4919061242e565b8110156113fb57600180826112f99190612462565b8154811061130a57611309612326565b5b90600052602060002090600702016001828154811061132c5761132b612326565b5b906000526020600020906007020160008201548160000155600182018160010190805461135890612384565b611363929190611854565b506002820154816002015560038201548160030155600482018160040190805461138c90612384565b611397929190611854565b506005820160009054906101000a900460ff168160050160006101000a81548160ff02191690831515021790555060068201816006019080546113d990612384565b6113e4929190611854565b5090505080806113f3906123e5565b9150506112d3565b50600180548061140e5761140d612524565b5b600190038181906000526020600020906007020160008082016000905560018201600061143b91906118e1565b6002820160009055600382016000905560048201600061145b91906118e1565b6005820160006101000a81549060ff021916905560068201600061147f91906118e1565b5050905550565b6060600260003373ffffffffffffffffffffffffffffffffffffffff1673ffffffffffffffffffffffffffffffffffffffff168152602001908152602001600020805480602002602001604051908101604052809291908181526020016000905b8282101561178657838290600052602060002090600a02016040518060800160405290816000820160009054906101000a900473ffffffffffffffffffffffffffffffffffffffff1673ffffffffffffffffffffffffffffffffffffffff1673ffffffffffffffffffffffffffffffffffffffff168152602001600182016040518060e00160405290816000820154815260200160018201805461158a90612384565b80601f01602080910402602001604051908101604052809291908181526020018280546115b690612384565b80156116035780601f106115d857610100808354040283529160200191611603565b820191906000526020600020905b8154815290600101906020018083116115e657829003601f168201915b50505050508152602001600282015481526020016003820154815260200160048201805461163090612384565b80601f016020809104026020016040519081016040528092919081815260200182805461165c90612384565b80156116a95780601f1061167e576101008083540402835291602001916116a9565b820191906000526020600020905b81548152906001019060200180831161168c57829003601f168201915b505050505081526020016005820160009054906101000a900460ff161515151581526020016006820180546116dd90612384565b80601f016020809104026020016040519081016040528092919081815260200182805461170990612384565b80156117565780601f1061172b57610100808354040283529160200191611756565b820191906000526020600020905b81548152906001019060200180831161173957829003601f168201915b505050505081525050815260200160088201548152602001600982015481525050815260200190600101906114e7565b50505050905090565b6040518060e001604052806000815260200160608152602001600081526020016000815260200160608152602001600015158152602001606081525090565b8280546117da90612384565b90600052602060002090601f0160209004810192826117fc5760008555611843565b82601f1061181557805160ff1916838001178555611843565b82800160010185558215611843579182015b82811115611842578251825591602001919060010190611827565b5b5090506118509190611921565b5090565b82805461186090612384565b90600052602060002090601f01602090048101928261188257600085556118d0565b82601f1061189357805485556118d0565b828001600101855582156118d057600052602060002091601f016020900482015b828111156118cf5782548255916001019190600101906118b4565b5b5090506118dd9190611921565b5090565b5080546118ed90612384565b6000825580601f106118ff575061191e565b601f01602090049060005260206000209081019061191d9190611921565b5b50565b5b8082111561193a576000816000905550600101611922565b5090565b6000604051905090565b600080fd5b600080fd5b600073ffffffffffffffffffffffffffffffffffffffff82169050919050565b600061197d82611952565b9050919050565b61198d81611972565b811461199857600080fd5b50565b6000813590506119aa81611984565b92915050565b6000602082840312156119c6576119c5611948565b5b60006119d48482850161199b565b91505092915050565b6000819050919050565b6119f0816119dd565b82525050565b6000602082019050611a0b60008301846119e7565b92915050565b611a1a816119dd565b8114611a2557600080fd5b50565b600081359050611a3781611a11565b92915050565b600060208284031215611a5357611a52611948565b5b6000611a6184828501611a28565b91505092915050565b611a73816119dd565b82525050565b600081519050919050565b600082825260208201905092915050565b60005b83811015611ab3578082015181840152602081019050611a98565b83811115611ac2576000848401525b50505050565b6000601f19601f8301169050919050565b6000611ae482611a79565b611aee8185611a84565b9350611afe818560208601611a95565b611b0781611ac8565b840191505092915050565b60008115159050919050565b611b2781611b12565b82525050565b600060e083016000830151611b456000860182611a6a565b5060208301518482036020860152611b5d8282611ad9565b9150506040830151611b726040860182611a6a565b506060830151611b856060860182611a6a565b5060808301518482036080860152611b9d8282611ad9565b91505060a0830151611bb260a0860182611b1e565b5060c083015184820360c0860152611bca8282611ad9565b9150508091505092915050565b60006020820190508181036000830152611bf18184611b2d565b905092915050565b60008060408385031215611c1057611c0f611948565b5b6000611c1e85828601611a28565b9250506020611c2f85828601611a28565b9150509250929050565b600082825260208201905092915050565b6000611c5582611a79565b611c5f8185611c39565b9350611c6f818560208601611a95565b611c7881611ac8565b840191505092915050565b60006020820190508181036000830152611c9d8184611c4a565b905092915050565b611cae81611b12565b82525050565b600060e082019050611cc9600083018a6119e7565b8181036020830152611cdb8189611c4a565b9050611cea60408301886119e7565b611cf760608301876119e7565b8181036080830152611d098186611c4a565b9050611d1860a0830185611ca5565b81810360c0830152611d2a8184611c4a565b905098975050505050505050565b60008060408385031215611d4f57611d4e611948565b5b6000611d5d8582860161199b565b9250506020611d6e85828601611a28565b9150509250929050565b611d8181611972565b82525050565b6000608082019050611d9c6000830187611d78565b8181036020830152611dae8186611b2d565b9050611dbd60408301856119e7565b611dca60608301846119e7565b95945050505050565b6000602082019050611de86000830184611d78565b92915050565b600080fd5b600080fd5b7f4e487b7100000000000000000000000000000000000000000000000000000000600052604160045260246000fd5b611e3082611ac8565b810181811067ffffffffffffffff82111715611e4f57611e4e611df8565b5b80604052505050565b6000611e6261193e565b9050611e6e8282611e27565b919050565b600067ffffffffffffffff821115611e8e57611e8d611df8565b5b611e9782611ac8565b9050602081019050919050565b82818337600083830152505050565b6000611ec6611ec184611e73565b611e58565b905082815260208101848484011115611ee257611ee1611df3565b5b611eed848285611ea4565b509392505050565b600082601f830112611f0a57611f09611dee565b5b8135611f1a848260208601611eb3565b91505092915050565b611f2c81611b12565b8114611f3757600080fd5b50565b600081359050611f4981611f23565b92915050565b60008060008060008060c08789031215611f6c57611f6b611948565b5b600087013567ffffffffffffffff811115611f8a57611f8961194d565b5b611f9689828a01611ef5565b9650506020611fa789828a01611a28565b9550506040611fb889828a01611a28565b945050606087013567ffffffffffffffff811115611fd957611fd861194d565b5b611fe589828a01611ef5565b9350506080611ff689828a01611f3a565b92505060a087013567ffffffffffffffff8111156120175761201661194d565b5b61202389828a01611ef5565b9150509295509295509295565b600080600080600080600060e0888a03121561204f5761204e611948565b5b600061205d8a828b01611a28565b975050602088013567ffffffffffffffff81111561207e5761207d61194d565b5b61208a8a828b01611ef5565b965050604061209b8a828b01611a28565b95505060606120ac8a828b01611a28565b945050608088013567ffffffffffffffff8111156120cd576120cc61194d565b5b6120d98a828b01611ef5565b93505060a06120ea8a828b01611f3a565b92505060c088013567ffffffffffffffff81111561210b5761210a61194d565b5b6121178a828b01611ef5565b91505092959891949750929550565b600081519050919050565b600082825260208201905092915050565b6000819050602082019050919050565b61215b81611972565b82525050565b600060e0830160008301516121796000860182611a6a565b50602083015184820360208601526121918282611ad9565b91505060408301516121a66040860182611a6a565b5060608301516121b96060860182611a6a565b50608083015184820360808601526121d18282611ad9565b91505060a08301516121e660a0860182611b1e565b5060c083015184820360c08601526121fe8282611ad9565b9150508091505092915050565b60006080830160008301516122236000860182612152565b506020830151848203602086015261223b8282612161565b91505060408301516122506040860182611a6a565b5060608301516122636060860182611a6a565b508091505092915050565b600061227a838361220b565b905092915050565b6000602082019050919050565b600061229a82612126565b6122a48185612131565b9350836020820285016122b685612142565b8060005b858110156122f257848403895281516122d3858261226e565b94506122de83612282565b925060208a019950506001810190506122ba565b50829750879550505050505092915050565b6000602082019050818103600083015261231e818461228f565b905092915050565b7f4e487b7100000000000000000000000000000000000000000000000000000000600052603260045260246000fd5b7f4e487b7100000000000000000000000000000000000000000000000000000000600052602260045260246000fd5b6000600282049050600182168061239c57607f821691505b602082108114156123b0576123af612355565b5b50919050565b7f4e487b7100000000000000000000000000000000000000000000000000000000600052601160045260246000fd5b60006123f0826119dd565b91507fffffffffffffffffffffffffffffffffffffffffffffffffffffffffffffffff821415612423576124226123b6565b5b600182019050919050565b6000612439826119dd565b9150612444836119dd565b925082821015612457576124566123b6565b5b828203905092915050565b600061246d826119dd565b9150612478836119dd565b9250827fffffffffffffffffffffffffffffffffffffffffffffffffffffffffffffffff038211156124ad576124ac6123b6565b5b828201905092915050565b7f696e646578206f7574206f6620626f756e640000000000000000000000000000600082015250565b60006124ee601283611c39565b91506124f9826124b8565b602082019050919050565b6000602082019050818103600083015261251d816124e1565b9050919050565b7f4e487b7100000000000000000000000000000000000000000000000000000000600052603160045260246000fdfea264697066735822122027856d19580427624a612f4e01615c31f58bee34a3b2c92465644e4393131b7664736f6c634300080b0033",
  "immutableReferences": {},
  "source": "// SPDX-License-Identifier: MIT\r\npragma solidity  ^0.8.3;\r\n\r\ncontract SmartContract{\r\n\r\n    struct Product {\r\n        uint id;\r\n        string name;\r\n        uint price;\r\n        uint quantity;\r\n        string description;\r\n        bool visible;\r\n        string image;\r\n    }\r\n\r\n    struct Order{\r\n        address clientAddress;\r\n        Product product;\r\n        uint bqte;\r\n        uint time;\r\n    }\r\n\r\n    address public owner;\r\n    Product[] public productsList;\r\n    mapping(address=>Order[]) public orders;\r\n    mapping(address=>uint) public ordersNumber;\r\n\r\n    constructor() {\r\n        owner = msg.sender; \r\n    }\r\n\r\n    modifier isOwner() {\r\n        require(msg.sender == owner, \"Caller is not owner\");\r\n        _;\r\n    }\r\n\r\n    function getProductsNumber()public view returns( uint){\r\n        return productsList.length;\r\n    }\r\n\r\n    function addProduct(string memory name, uint price,uint quantity,string memory description,bool visible,string memory image) public {\r\n            productsList.push(Product(productsList.length+1,name,price,quantity,description,visible,image));\r\n    }\r\n\r\n    function deleteProduct(uint productId) public{\r\n        require(productId < (productsList.length+1),\"index out of bound\");\r\n\r\n        for (uint i = productId-1; i<productsList.length-1; i++){\r\n            productsList[i] = productsList[i+1];\r\n        }\r\n        productsList.pop();\r\n    }\r\n\r\n    function updateProduct(uint productId, string memory name, uint price,uint quantity,string memory description,bool visible,string memory image) public payable{\r\n            productsList[productId-1] = Product(productId,name,price,quantity,description,visible,image);\r\n    }\r\n\r\n    function getProductById(uint productId)public view returns(Product memory){\r\n        for(uint i=0;i<productsList.length;i++){\r\n            if(productsList[i].id==productId){\r\n                return  productsList[i];\r\n            }\r\n        }\r\n        return Product(0,\"\",0,0,\"\",false,\"\");\r\n    }\r\n\r\n    function buyProduct(uint productId,uint bqte)public payable returns(string memory) {\r\n        for(uint i=0;i<productsList.length;i++){\r\n            if(productsList[i].id==productId){\r\n                productsList[i].quantity = productsList[i].quantity - bqte;\r\n                orders[msg.sender].push(Order(msg.sender,productsList[i],bqte,block.timestamp));\r\n                ordersNumber[msg.sender]++;\r\n                return \"done\";\r\n            }\r\n        }\r\n        return \"Not found\";\r\n    }\r\n\r\n\r\n    function getOrdersByClientAddress()public view returns(Order[] memory){\r\n        return orders[msg.sender];\r\n    }\r\n\r\n    function getContractBalance()public view  returns(uint){\r\n        return address(this).balance;\r\n    }\r\n   \r\n    function sendContractBalanceToOwner() public {\r\n        payable(owner).transfer(address(this).balance);\r\n    }\r\n\r\n}",
  "sourcePath": "C:\\Projects\\Block_Explorer\\PFE\\Truffle\\contracts\\SmartContract.sol",
  "compiler": {
    "name": "solc",
    "version": "0.8.11+commit.d7f03943.Emscripten.clang"
  },
  "schemaVersion": "3.4.4",
  "updatedAt": "2022-07-11T16:08:25.412Z",
  "networkType": "ethereum",
  "devdoc": {
    "kind": "dev",
    "methods": {},
    "version": 1
  },
  "userdoc": {
    "kind": "user",
    "methods": {},
    "version": 1
  }
}